:020000040800F2
:1000000000300020550200083D3F00081934000868
:100010006102000863020008650200080000000099
:10002000000000000000000000000000794100080E
:1000300069020008000000003F3F00087B41000803
:100040006F0200086F0200086F0200086F020008CC
:100050006F0200086F0200086F0200086F020008BC
:100060006F0200086F0200086F0200086F020008AC
:100070006F0200086F0200086F0200086F0200089C
:100080006F0200086F0200086F0200086F0200088C
:100090006F0200086F0200086F0200086F0200087C
:1000A0006F0200086F0200086F0200086F0200086C
:1000B0004D4300086F020008000000006F020008B6
:1000C0006F02000800000000000000006F0200083E
:1000D000000000006F020008B54B00086F02000826
:1000E0006F0200086F02000800000000000000001E
:1000F0000000000000000000000000000000000000
:1001000000000000000000000000000000000000EF
:1001100000000000000000006F0200086F020008ED
:1001200000000000000000000000000000000000CF
:1001300000000000000000000000000000000000BF
:100140006F0200086F0200080000000000000000BD
:10015000000000000000000000000000000000009F
:10016000000000000000000000000000000000008F
:10017000000000000000000000000000000000007F
:10018000000000006F02000800F002F800F053F8D1
:100190000AA090E8000C82448344AAF10107DA45E2
:1001A00001D100F048F8AFF2090EBAE80F0013F0E1
:1001B000010F18BFFB1A43F0010318474C6F0000F2
:1001C0006C6F0000103A24BF78C878C1FAD8520783
:1001D00024BF30C830C144BF04680C6070470000C1
:1001E0000023002400250026103A28BF78C1FBD840
:1001F000520728BF30C148BF0B607047752900F017
:100200004781782900F08081632900F0CE8373292B
:1002100000F0D383002070471FB506F0CBFC00F040
:10022000C9FC04000020002106F0AEFC401C606008
:100230001FBD10B510BD00F098FC1146FFF7ECFF94
:1002400006F020F900F0C8FC03B4FFF7F2FF03BC8E
:1002500004F0FEFE0948804709480047FEE7FEE734
:10026000FEE7FEE7FEE7FEE7FEE7FEE7FEE7FEE766
:1002700004480549054A064B70470000E141000863
:1002800089010008B02D002000300020002E002041
:10029000002E0020704753EA020C00F069802DE91F
:1002A000F04B4FF00006002B1FBFB3FA83F503FAA3
:1002B00005F424FA05F65E4012BF1643B2FA82F541
:1002C00002FA05F4C5F120051EBF22FA05FC44EA36
:1002D0000C04203556EA044C4FEA144418BF641C41
:1002E0004FF000084FF00009904271EB030C39D336
:1002F000002919BFB1FA81F701FA07F6B0FA80F7C1
:1003000000FA07F6C7F120071EBF20FA07FC46EAED
:100310000C062037B6FBF4FCA7EB0507103F07F0EF
:100320001F0BCBF120060CFA0BFB2CFA06F644BF90
:10033000B3460026202FA4BF5E464FF0000B5BEAB9
:10034000060C08BF4FF0010B19EB0B09ABFB027C4D
:1003500048EB0608C01B06FB02CC0BFB03CC71EB81
:100360000C01C1E70B46024641464846BDE8F08B0A
:1003700013B54FF000004FF00001AFF30080BDE86F
:100380001C407047B2F120030AD5C2F1200320FAC5
:1003900002F001FA03F321FA02F140EA0300704788
:1003A00021FA03F04FF00001704700000FB41CB5B4
:1003B000074B06AA7B4469460090059800F0D3FAE3
:1003C0000020694600F0E2FA1CBC5DF814FB000056
:1003D000D50500002DE9F0410E46044600202062BC
:1003E0002046E168884730B3252805D0D4E90121AB
:1003F0009047206A401CF2E7E168204600278847C2
:10040000050018D0A5F14100192802D820354FF475
:1004100000673246294620462760FFF7EFFE40B1CD
:10042000012804D0F61D26F007060836D8E7361D49
:10043000D6E72846DAE7206ABDE8F08170B50C46B9
:100440000546012A05D02878800600D5EA690023F0
:1004500002E0012305E05B1C934202D2E05C00282D
:10046000F9D1A869E618C01AA861286A1844286258
:100470002846AFF3008004E0D5E9012114F8010B10
:100480009047B442F8D32846AFF3008070BD000017
:100490002DE9F0410646002410687529314616A55D
:1004A00010D0AFF30080002802DA404213A507E025
:1004B00031688A0701D512A502E0490704D511A5C4
:1004C000012401E0AFF3008000210A2206F1240795
:1004D00009E0B0FBF2FCB0FBF2F302FB1C00303091
:1004E00078541846491C0028F3D123462A46304642
:1004F000BDE8F04100F0D8B9000000002D00000078
:100500002B0000002000000070B504460D46214677
:100510001068AFF300802188090502D50F4A7A449C
:1005200002E00E4A7A440E32002104F1240305E071
:1005300000F00F060009965D5E54491C0028F7D1B3
:1005400020780023000704D5702D02D009B10223C2
:1005500011322046BDE8704000F0A6B9DC69000009
:1005600070B5064600F09CF90468054630460A223C
:10057000002100F026FA2C6070BD0000014A00F056
:1005800059BA00007C00002040EA0103024630B561
:100590009B0710D14FF0013400E008C208C91D1BB1
:1005A0009D4315EAC41FF8D013F0FF0102F8011BA8
:1005B0000DD01B0AF8E711F8013B002B02F8013BB4
:1005C00005D011F8013B002B02F8013BF3D130BDFF
:1005D00010B5431C02E010F8011B71B18107FAD17C
:1005E0004FF0013202C88C1A8C4314EAC211F9D0C0
:1005F000C01A0A0603D0C01E10BDC01A10BD0A04DE
:1006000001D0801E10BD0902FCD0401E10BD40EA82
:10061000010370B59B072ED14FF00136042A2AD36F
:1006200008C810C99D1B9D43121F15EAC61517D097
:10063000D8B2E1B2401A50EA056110D198B2A1B225
:10064000401A50EA05410AD123F07F4024F07F414F
:10065000401A50EA052102D1180EA0EB146070BDBB
:10066000A342DBD018BA21BA884201D9012070BD5B
:100670004FF0FF3070BD0AB9002070BD10F8013B8B
:1006800011F8014B63B1A3420AD1521E08D010F8F1
:10069000013B11F8014B1BB1A34201D1521EEDD118
:1006A000181B70BD421E12F8013F002BFBD111F840
:1006B000013B002B02F8013BF9D1704710B5203AFD
:1006C000C0F00B80B1E81850203AA0E81850B1E80B
:1006D0001850A0E81850BFF4F5AF5FEA027C24BFC1
:1006E000B1E81850A0E8185044BF18C918C0BDE8B8
:1006F00010405FEA827C24BF51F8043B40F8043B81
:1007000008BF7047D20728BF31F8023B48BF11F835
:10071000012B28BF20F8023B48BF00F8012B70478F
:1007200002F0FF0343EA032242EA024200F002B869
:100730004FF000020429C0F0128010F0030C00F00A
:100740001B80CCF1040CBCF1020F18BF00F8012B88
:10075000A8BF20F8022BA1EB0C0100F00DB85FEA56
:10076000C17C24BF00F8012B00F8012B48BF00F822
:10077000012B70474FF0000200B513469446964691
:10078000203922BFA0E80C50A0E80C50B1F12001A4
:10079000BFF4F7AF090728BFA0E80C5048BF0CC052
:1007A0005DF804EB890028BF40F8042B08BF7047B0
:1007B00048BF20F8022B11F0804F18BF00F8012B22
:1007C000704710B5044610F0030F08BF11F0030F77
:1007D00040F015804FF0013E121FC0F20E8051F81C
:1007E000043BA3EB0E0C2CEA030C1CEACE1C08BF46
:1007F00040F8043BF0D0A1F1040102F10402521EC2
:1008000008DB11F8013B002B00F8013BF7D1114642
:10081000FFF78EFF204610BD4FF0013C50F8042B2F
:1008200051F8043B9A4221D1A2EB0C03934313EA03
:10083000CC1317D150F8042B51F8043B9A4215D130
:10084000A2EB0C03934313EACC130BD150F8042B07
:1008500051F8043B9A4209D1A2EB0C03934313EAEB
:10086000CC13DBD04FF00000704700BFD01A01BAA4
:10087000B1FA81F101F0180122FA01F0CB40C1F187
:100880002001DBB2C0B2C01A2CFA01F3D11A914395
:1008900011EAC311E6D170477047704770470000F6
:1008A00000487047502D00202DE9F0470D4699462D
:1008B0009246044600F124080168880604D5E069E0
:1008C00021F01001216000E00120A84201DD471B5A
:1008D00000E00027A1697A1902EB0900081AA0615B
:1008E0002078C00602D42046AFF30080002608E03E
:1008F000D4E901211AF806009047206A401C761CB2
:1009000020624E45F4DB2078C0060AD52046AFF3BE
:10091000008006E0D4E9012130209047206A401C85
:100920002062381EA7F10107F4DC07E0D4E90121B9
:1009300018F805009047206A401C2062281EA5F187
:100940000105F3DC2046AFF300802078000602D5D5
:100950000220BDE8F0870120FBE7000001694A1C86
:1009600002610878704700B58FB0CDE901310021F0
:10097000059105497944CDE9031011466846FFF712
:1009800029FD0FB000BD0000E5FFFFFF0A6802F877
:10099000010B0A60704710B5436913B1AFF30080D3
:1009A00001E0FFF74BFD012010BD127800F124019A
:1009B0000A7000224A700122EDE711684FF0FF3201
:1009C000E9E72DE9F04791460F46804604460026A8
:1009D00014F8015B2DB100F053F80068405DC007CA
:1009E000F6D12B2D02D02D2D18D0641E4A46394643
:1009F000204600F04DF827B13968A14201D1C7F86F
:100A000000804FF0020471050BD54042002803DD41
:100A1000FFF746FF0460A007BDE8F08746F4806654
:100A2000E4E70028F8DAFFF73BFF04606FF00040CE
:100A3000F2E700002DE9F04115460E46040002D110
:100A40002C6804B90BA4204600F081F804442078F7
:100A500070B127463146384600F069F804442078E2
:100A600010B1002004F8010B38462C60BDE8F0817D
:100A70000027F9E70000000000487047502D0020D3
:100A800010B500F097F8001D10BD00BFFD6000001C
:100A90002DE9F05F824615468B4600270AF10104D6
:100AA000B9460078302801D09DB113E014F8010B4D
:100AB0000127782803D0582801D045B10AE00DB1AC
:100AC000102D07D1002714F8010B102502E008258E
:100AD00000E00A250026B0460EE005FB080005FBF5
:100AE00006F101271FFA80F801EB1046B6F5803FAA
:100AF00000D3B94614F8010B294600F05FF800282E
:100B0000EBDABBF1000F05D00FB1641E00E05446D4
:100B1000CBF80040B9F1000F06D0FFF7C1FE02216B
:100B20000160C81EBDE8F09F48EA0640FAE730B50C
:100B300003461D781DB10A4603E0AC4201D1181AE4
:100B400030BD12F8014B002CF7D15B1CF1E730B53A
:100B500003461D783DB10A4612F8014B1CB1AC4268
:100B6000FAD15B1CF5E7181A30BD7546FFF784FF14
:100B7000AE4605006946534620F00700854618B08A
:100B800020B5FFF775FBBDE820404FF000064FF0A1
:100B900000074FF000084FF0000B21F00701AC46B2
:100BA000ACE8C009ACE8C009ACE8C009ACE8C009D1
:100BB0008D46704700487047702D00203A2800D2BB
:100BC000303820F02002412A01D3A2F137008842B8
:100BD00001D34FF0FF30704710B50446AFF30080EB
:100BE0002046BDE81040FFF72FBB10B5012402F0EE
:100BF00083FE0F2800D10024204610BD02F060BE05
:100C000010B522480078C00701D100F041F802F089
:100C100073FE4FF49641102836D2DFE800F0080B3F
:100C20000E1114171A1C1F2225282B2E31334FF4B6
:100C3000E12010BD4FF4613010BD4FF4E13010BD24
:100C40004FF4963010BD4FF4614010BD4FF4164084
:100C500010BD084610BD4FF4615010BD4FF4165042
:100C600010BD4FF4965010BD4FF4166010BD4FF4F8
:100C7000966010BD4FF4167010BD4FF4967010BD05
:100C80006E2010BD084610BD084610BD1B00002098
:100C900010B502F015FE0348017841F00101017022
:100CA00010BD00001B00002070B50446124D2878CE
:100CB000002805D100F092FD03F061FA01202870B0
:100CC000E00709D002F0EEFC02F0DEFC02F03AFD93
:100CD0004FF47A7000F09EF904F0020004F008016D
:100CE000084301D002F054FD600703D5BDE8704011
:100CF00002F0FEBC70BD00006900002010B50D219F
:100D00000548FFF715FD00F031F90D21024800F00C
:100D10000FF9014810BD0000502A002002F0A4BDC8
:100D200002F0BCBF03F060B810B502F07FFD08B15F
:100D3000002010BD012010BD704705F079FB4FF475
:100D4000FA7405F098FBC82000F064F905F08CFBFC
:100D5000C82000F05FF905F08EFBC82000F05AF9BA
:100D600005F082FBC82000F055F905F084FBC8208F
:100D700000F050F905F078FBC82000F04BF905F0C1
:100D80007AFB204600F046F905F06EFBC82000F023
:100D900041F905F070FB204600F03CF905F064FBDA
:100DA000C82000F037F905F066FB204600F032F964
:100DB00005F05AFBC82000F02DF905F05CFBC820B7
:100DC00000F028F905F050FBC82000F023F905F0E9
:100DD00052FBC82000F01EF905F046FBC82000F0C9
:100DE00019F905F048FBC82000F014F905F03CFBA8
:100DF000C82000F00FF905F037FB204600F00AF993
:100E00009FE70022AFF3008030B5044601200D4B70
:100E10005D7A002D14D1587A1D54587A03EB800066
:100E200044605C7A03F108002254587A421C5A72DA
:100E3000303008703A2048702F208870CD70002024
:100E400030BD0000F02B002006490020C861064894
:100E5000016941F004010161016941F04001016152
:100E600070470000302D002000200240064A00217B
:100E7000D16106490A6942F002020A6148610869C3
:100E800040F0400008617047302D002000200240F3
:100E9000044B0022DA61044A136943F00103136131
:100EA00001807047302D00200020024000200A4AB7
:100EB000D168CB06094904D5C86940F00200C86171
:100EC0001020D3685B0705D5CB6943F00103CB61E4
:100ED00040F00400D060704700200240302D002018
:100EE00070B5044600F036FA0546104E09E0601C65
:100EF00007D024B100F02EFA401BA04201D90320F4
:100F000070BDF068C007F2D1F068800601D52020DE
:100F1000F060F068C00602D4F068400703D5FFF720
:100F2000C5FF012070BD002070BD00000020024000
:100F300070B505460C46064B1B78002B01D100F01E
:100F400015F822462846BDE870400149FFF739BC34
:100F5000A02A002010B502F093FFBDE810400D213B
:100F60000148FFF7E5BB0000A02A002010B502F001
:100F700027FF0146BDE810400D220148FFF721BCC4
:100F8000A02A002010B590F821100022022905D0D7
:100F90000421816380F82020012010BD01680B68C6
:100FA00023F00E030B6001680B6823F001030B6054
:100FB00090F84030012404FA03F1C36B596080F8C3
:100FC000214080F82020002010BD10B5002490F8AA
:100FD0002110022903D004218163012418E0016853
:100FE0000A6822F00E020A6001680A6822F0010213
:100FF0000A6090F84020012303FA02F1C26B5160AD
:1010000080F82130002180F82010416B01B1884721
:10101000204610BD70B5044600F09CF90546601CE2
:1010200002D004480078044400F094F9401BA04228
:10103000FAD370BD6C0000202DE9F04705460F463D
:101040004FF0010ADFF88C8098F8180001280DD0C5
:10105000012088F8180028681F4E4CF250390128EA
:1010600007D04846FFF73CFF90B12EE00220BDE8D4
:10107000F0874846FFF734FF38BBFFF7E5FE4846E8
:10108000FFF72EFF8246306920F0040030611CE03B
:101090004FF0FF3038606C6811E02046FFF7E6FE45
:1010A0004846FFF71DFF8246306920F0020030619C
:1010B0005FEA0A0001D03C6007E004F50064D5E96E
:1010C000010100EBC120A042E7D8002088F81800F9
:1010D0005046CCE7302D0020002002400348016933
:1010E00041F08001016100207047000000200240B3
:1010F0002DE9F05F0746884615461E460024DFF8B6
:10110000749099F81800012809D0012089F8180076
:101110004CF2503B5846FFF7E3FE18B126E00220A0
:10112000BDE8F09F012F05D0022F05D00427DFF87E
:1011300048A019E00127FAE70227F8E7220128462C
:101140003146FFF71FF981B208EB4400FFF7A0FE1C
:101150005846FFF7C5FEDAF8101021F00101CAF871
:10116000101018B9641CE4B2BC42E7D3002189F81E
:101170001810D5E7302D002000200240002006493D
:101180000A69120607D5054A4A60054A4A60096994
:10119000090600D501207047002002402301674561
:1011A000AB89EFCD2DE9F84F0022DFF874914FF0B5
:1011B000010809F1040A03274FF00F0C0AF1040B90
:1011C000A7E008FA02F52B40002B72D00C7904F04E
:1011D0000304012C01D0022C15D18668540007FAB3
:1011E00004FE26EA0E06D1F80CE00EFA04FE4EEAE2
:1011F000060EC0F808E04468AC430D79C5F300154D
:101200009540254345600C79E443A40708D0C568A0
:10121000540007FA04F6B5438E68A6402E43C66014
:101220000C7904F00304022C11D1D40800EB8406DD
:10123000356A5407E40E0CFA04FE25EA0E05D1F8CF
:1012400010E00EFA04FE4EEA050EC6F820E005682E
:10125000540007FA04F6B5430E7906F00306A640DB
:101260002E4306604C6814F4403F51D02D4CA569C4
:1012700045F00105A561A46904F0010400942A4C1D
:1012800022F003052E19B56894074FEA147E0CFA74
:101290000EF4A543B0F1904F04D0244CA04203D1EA
:1012A00001240DE000240BE0214CA04202D10224D5
:1012B00006E02DE01F4CA04201D1032400E00524EC
:1012C00004FA0EF42C43B460D9F800409C434D68F6
:1012D000ED0300D51C43C9F80040DAF800409C43F8
:1012E0004D68AD0300D51C43CAF80040DBF8004050
:1012F0009C434D68ED0200D51C43CBF80040084DDF
:101300000C352C689C434E68B60200D51C432C60FB
:10131000521C0B6833FA02F47FF453AFBDE8F88F28
:101320000004014000100240000001400004004899
:1013300000080048000C00480069084201D0012064
:10134000704700207047002A01D081617047816298
:101350007047000001488068704700006C00002062
:1013600090F84120202A01D00220704790F84020B8
:10137000012A20D0012280F84020242280F8412038
:101380000268136823F0010313600268136823F4F2
:1013900080531360026813680B43136001680A6886
:1013A00042F001020A60202180F84110002180F8FB
:1013B0004010002070470220704790F84120202AFA
:1013C00001D00220704790F84020012A1ED001224F
:1013D00080F84020242280F841200268136823F01E
:1013E000010313600268136823F4706343EA012168
:1013F000116001680A6842F001020A60202180F849
:101400004110002180F840100020704702207047F2
:1014100070B50446002C04D094F84100002510B1AA
:1014200006E0012070BD84F84050204600F09CF991
:10143000242084F841002068016821F00101016046
:101440006068216820F0706008612068816821F47C
:1014500000418160E068012808D0A068216840F45C
:1014600004408860E068022806D009E0A06821688E
:1014700040F400408860F5E721684FF40060486060
:1014800020684168114A114341602068C16821F415
:101490000041C160D4E904010843A16940EA012088
:1014A0002168C860D4E90701084321680860206802
:1014B000016841F0010101606564202084F8410069
:1014C000256384F84250002070BD000000800002B7
:1014D0002DE9F84F0446DDF828A08B4617469846BC
:1014E00094F84100202802D00220BDE8F88F94F83B
:1014F000400001280FD0012084F84000FFF72AFFA8
:10150000064601221923D1032046009601F0F8FF78
:1015100018B10120E9E70220E7E7222084F8410022
:10152000102084F84200002565646762A4F82A80D0
:101530006563618D3748FF274FF080784FF0007961
:10154000FF2908D93A462785009043465946204648
:1015500001F0C0FF43E0618D2185009094F82820C0
:101560004B465946204601F0B5FF38E03246514619
:10157000204601F0F1FF08B10120B6E72068406A7B
:10158000616A0870606A401C6062208D401E80B2F3
:101590002085618D491E6185618D01B3F8B953467F
:1015A000002280212046009601F0AAFF08B1012008
:1015B0009BE7608DFF2808D93A4627854346594660
:1015C0002046009501F086FF09E0608D208500959A
:1015D00094F828204B465946204601F07BFF608D49
:1015E0000028C3D132465146204601F0FFFF08B122
:1015F00001207AE720682021C16120684268064BFB
:101600001A40426084F8411084F8425084F84050F7
:1016100000206AE70024008000E800FE2DE9F84F72
:101620000446DDF828A08B461746984694F84100FA
:10163000202802D00220BDE8F88F94F8400001284D
:101640000FD0012084F84000FFF784FE06460122F7
:101650001923D1032046009601F052FF18B1012052
:10166000E9E70220E7E7212084F84100102084F810
:101670004200002565646762A4F82A806563618D75
:101680003748FF274FF080784FF00079FF2908D9BD
:101690003A462785009043465946204601F01AFFF6
:1016A00043E0618D2185009094F828204B465946EF
:1016B000204601F00FFF38E032465146204601F047
:1016C000BBFF08B10120B6E7606A21680078886234
:1016D000606A401C6062608D401E6085208D401EE7
:1016E00080B22085618D01B3F8B953460022802174
:1016F0002046009601F004FF08B101209BE7608DB1
:10170000FF2808D93A462785434659462046009582
:1017100001F0E0FE09E0608D2085009594F8282016
:101720004B465946204601F0D5FE608D0028C3D1B6
:1017300032465146204601F059FF08B101207AE7B0
:1017400020682021C16120684268064B1A4042602F
:1017500084F8411084F8425084F8405000206AE731
:101760000020008000E800FE10B586B00446142179
:1017700001A8FEF7FFFF1249206888421ED1114CD4
:10178000606940F480206061606900F4802000900E
:10179000C0200190122002900120039003200490A9
:1017A0000420059001A90848FFF7FCFCE06940F41B
:1017B0000010E061E06900F40010009006B010BD78
:1017C00000540040001002400004004802488168B4
:1017D00002781144816070476C00002010B5074802
:1017E000016841F010010160032000F06FF8032050
:1017F00000F006F800F026F8002010BD002002409E
:1018000070B504460D4D4FF47A712878B1FBF0F0B5
:101810000B490968B1FBF0F000F078FF08B1012036
:1018200070BD102C07D200222146501E00F02EF869
:101830006C60002070BD012070BD00006C000020B5
:101840007800002008B50948816941F001018161F3
:10185000816901F001010091C16941F08051C161CC
:10186000C06900F08050009008BD000000100240E8
:10187000002809DB00F01F0201219140400980008F
:1018800000F1E020C0F8001170470000F0B40D46F0
:101890000D4B1B68C3F30223C3F10704042C00D9CA
:1018A0000424191D072901D2002300E0DB1E0126B4
:1018B00006FA04F1491E294099409E40761E1640C2
:1018C0003143F0BC03F0B4BB0CED00E000F00701C5
:1018D000054A10684FF6FF03184040EA012003490B
:1018E00008431060704700000CED00E00000FA05AE
:1018F0002DE9F04704460D46002C17D0DFF89481FF
:10190000D8F8000000F00700A84211D2D8F8000073
:1019100020F007002843C8F80000D8F8000000F0C5
:101920000700A84204D00120BDE8F0870120FBE7B2
:101930002078594E800705D57068A16820F0F00026
:10194000084370602078C00765D0606801220128D4
:101950000CD0022822D0022393FAA3F1B1FA81F12C
:1019600041F02001490931D0316830E04FF40033B3
:1019700093FAA3F1B1FA81F141F02001490901D0B4
:10198000316800E0716A93FAA3F3B3FA83F303F0CA
:101990001F039A40114225D10120C5E74FF0007383
:1019A00093FAA3F1B1FA81F141F02001490901D084
:1019B000316800E0716A93FAA3F3B3FA83F303F09A
:1019C0001F039A4011420DD10120ADE7716A93FACD
:1019D000A3F3B3FA83F303F01F039A40114201D13A
:1019E0000120A1E7716821F0030101437160FFF755
:1019F000B1FC074641F2883906E0FFF7ABFCC01B9B
:101A0000484501D903208FE77068616800F00C0039
:101A1000B0EB810FF1D1D8F8000000F00700A84228
:101A20000ED9D8F8000020F007002843C8F80000BD
:101A3000D8F8000000F00700A84201D0012073E7A9
:101A40002078400705D57068E16820F4E06008431D
:101A500070602078000706D57068216920F4605016
:101A600040EAC100706000F051F87168F02292FA0B
:101A7000A2F201F0F001B2FA82F2D140074A515CC1
:101A8000C8400749086007480068FFF7B9FE002012
:101A90004AE700000020024000100240E66E000805
:101AA00078000020700000200148006870470000A6
:101AB0007800002000B5FFF7F7FF074949684FF4A9
:101AC000E06292FAA2F201F4E061B2FA82F2D1404D
:101AD000024A515CC84000BD00100240F66E00088A
:101AE00000B5FFF7E1FF074949684FF4605292FAE9
:101AF000A2F201F46051B2FA82F2D140024A515C82
:101B0000C84000BD00100240F66E000810B5164B2C
:101B10005968164801F00C02042A20D0082A1ED168
:101B20004FF4701494FAA4F401F47012B4FA84F42B
:101B3000E2400F4CA45CDA6A0F2393FAA3F302F09D
:101B40000F02B3FA83F3DA40094B10339A5CC903EE
:101B500006D500231946FEF79EFBA0FB040110BD2D
:101B60000448A4FB000110BD0010024000127A00DE
:101B7000C66E000800093D002DE9F84F0446002C10
:101B800012D02078F84EC0074FF001055ED0706883
:101B90004FF40038C0F3810001280BD07068C0F307
:101BA0008100022803D01EE00120BDE8F88F706894
:101BB000C00318D598FAA8F0B0FA80F040F02000E1
:101BC000400901D0306800E0706A98FAA8F1B1FAD3
:101BD00081F101F01F0105FA01F1084275D060683A
:101BE000A0BB0120E1E76068B0F5803F17D0D8B115
:101BF000B0F5A02F21D0306820F4803030603068FC
:101C000020F480203060F06AA16820F00F000843C3
:101C1000F0626068C0B3FFF79DFB07461EE03068C6
:101C200040F480303060EEE7306820F4803030607F
:101C3000306820F480203060E5E7306840F4802090
:101C40003060306840F480303060DCE73DE0FFF722
:101C500081FBC01B642801D90320A6E798FAA8F0ED
:101C6000B0FA80F040F02000400901D0306800E078
:101C7000706A98FAA8F1B1FA81F101F01F0105FA32
:101C800001F10842E3D020E0FFE7FFF763FB0746DE
:101C900006E0FFF75FFBC01B642801D9032084E73F
:101CA00098FAA8F0B0FA80F040F02000400901D086
:101CB000306800E0706A98FAA8F1B1FA81F101F099
:101CC0001F0105FA01F10842E3D12078DFF89C8278
:101CD00080074FF0000B4FF0020732D570684FF0CD
:101CE000F80A10F00C0F07D07068C0F381000228CA
:101CF00028D17068C00325D497FAA7F0B0FA80F015
:101D000040F02000400901D0306800E0706A97FA86
:101D1000A7F1B1FA81F101F01F0105FA01F10842C2
:101D200004D02069012801D001203EE730689AFAEA
:101D3000AAF26169B2FA82F220F0F80091400843F9
:101D400030605CE0206990B395FAA5F0B0FA80F0BD
:101D500048F82050FFF7FEFA814607E0FFF7FAFA4D
:101D6000A0EB0900022801D903201EE797FAA7F08B
:101D7000B0FA80F040F02000400901D0306800E067
:101D8000706A97FAA7F1B1FA81F101F01F0105FA23
:101D900001F10842E2D030689AFAAAF26169B2FA17
:101DA00082F220F0F80091400843306027E0FFE71E
:101DB00095FAA5F0B0FA80F048F820B0FFF7CAFA1B
:101DC000814607E0FFF7C6FAA0EB0900022801D917
:101DD0000320EAE697FAA7F0B0FA80F040F020007E
:101DE000400901D0306800E0706A97FAA7F1B1FAB3
:101DF00081F101F01F0105FA01F10842E2D12078DA
:101E000000076DD5A069A8B395FAA5F0B0FA80F0E7
:101E100008EB8000C0F88054FFF79CFA814607E089
:101E2000FFF798FAA0EB0900022801D90320BCE6CD
:101E300097FAA7F0B0FA80F040F06000B5EB501FC1
:101E400001D130680BE097FAA7F0B0FA80F040F0CB
:101E50006000B7EB501F01D1306A00E0706A97FA5A
:101E6000A7F1B1FA81F101F01F0205FA02F108426F
:101E7000D6D035E0FFE795FAA5F0B0FA80F008EB90
:101E80008000C0F880B4FFF765FA814607E0FFF7ED
:101E900061FAA0EB0900022801D9032085E697FA30
:101EA000A7F0B0FA80F040F06000B5EB501F01D110
:101EB00030680BE097FAA7F0B0FA80F040F06000CD
:101EC000B7EB501F01D1306A00E0706A97FAA7F1B2
:101ED000B1FA81F101F01F0205FA02F10842D6D1F0
:101EE000207840076ED54FF00009F069C00009D492
:101EF000F06940F08050F061F06900F0805000908F
:101F00004FF001091A480168C90513D4016841F46A
:101F100080710160FFF71EFA824607E0FFF71AFAA8
:101F2000A0EB0A00642801D903203EE610480068AF
:101F3000C005F3D5E068012810D0D8B1052822D01B
:101F4000306A20F001003062306A20F00400306214
:101F5000E068B0B3FFF7FEF9824627E0306A40F050
:101F600001003062F4E7000000100240000042422D
:101F700000700040306A20F001003062306A20F0CA
:101F800004003062E4E7306A40F004003062306AF6
:101F900040F001003062DBE7FFF7DCF9A0EB0A015B
:101FA00041F28830814201D90320FEE597FAA7F07B
:101FB000B0FA80F040F04000B5EB501F03D130681C
:101FC0000DE017E04CE097FAA7F0B0FA80F040F08F
:101FD0004000B7EB501F01D1306A00E0706A97FAF9
:101FE000A7F1B1FA81F101F01F0105FA01F21042E7
:101FF000D2D02EE0FFF7AEF9824609E0FFF7AAF94A
:10200000A0EB0A0141F28830814201D90320CCE5DE
:1020100097FAA7F0B0FA80F040F04000B5EB501FFF
:1020200001D130680BE097FAA7F0B0FA80F040F0E9
:102030004000B7EB501F01D1306A00E0706A97FA98
:10204000A7F1B1FA81F101F01F0105FA01F2104286
:10205000D4D1B9F1010F03D1F06920F08050F061C3
:10206000E06980B37168C1F38101022977D04FF034
:1020700080794FF00077022809D099FAA9F0B0FAD8
:1020800080F048F820B0FFF765F904465DE099FA62
:10209000A9F0B0FA80F048F820B0FFF75BF982466B
:1020A00007E0FFF757F9A0EB0A00022801D9032047
:1020B0007BE597FAA7F0B0FA80F040F020004009E5
:1020C00002D0306801E068E0706A97FAA7F1B1FACF
:1020D00081F101F01F0105FA01F10842E1D1D4E9D3
:1020E00008100843716821F474110843706099FA6C
:1020F000A9F0B0FA80F048F82050FFF72BF9044619
:1021000006E0FFF727F9001B022801D903204CE560
:1021100097FAA7F0B0FA80F040F02000400901D013
:10212000316800E0716A97FAA7F0B0FA80F000F029
:102130001F0005FA00F00142E3D02EE0FFF70AF994
:10214000001B022801D903202FE597FAA7F0B0FA67
:1021500080F040F02000400902D0316801E00BE03F
:10216000716A97FAA7F0B0FA80F000F01F0005FA44
:1021700000F00142E2D110E001280CD07068226A20
:1021800000F48031914204D1616A00F470108842F9
:1021900003D0012009E5012007E5002005E570B521
:1021A0000446002C09D0606A002540B125616561B4
:1021B000A56294F85D0040B10CE0012070BD60683C
:1021C000B0F5827FF4D0E561F2E784F85C502046F8
:1021D00000F056F8022084F85D002068016821F0C4
:1021E00040010160E1684FF4E062914201D90020B2
:1021F00001E04FF48050B1F5706F02D0914200D0F1
:10220000A562A188228901F4827102F4044211437B
:10221000227C02F002021143227D02F001021143EE
:10222000228B02F400721143227F02F03802114324
:1022300094F8202002F080021143228D02F4005213
:10224000114322681160A169042202EA114194F845
:10225000242000F4805002F01002114394F834203E
:1022600002F008021143A28902F470621143014393
:10227000206841602566012084F85D00002070BD63
:1022800010B586B00446142101A8FEF773FA13496D
:10229000206888421FD11248816941F480518161D0
:1022A000816901F480510091416941F4003141613B
:1022B000406900F400300090E0200190022002907C
:1022C00001200390032004900520059001A94FF000
:1022D0009040FEF767FF06B010BD000000300140DF
:1022E000001002402DE9F84F04468B4692461D46E9
:1022F000002694F85C0001280DD04FF0010984F805
:102300005C90FFF727F8074694F85D00B046012877
:1023100004D00226BEE00220BDE8F88FBBF1000F1A
:102320001CD05FEA0A0019D0032084F85D00C4F8CD
:102330006080C4F838B0A4F83CA0A4F83EA0C4F86B
:102340004080A4F84480A4F84680C4F85080C4F8C3
:102350004C80A068B0F5004F02D00BE0012699E058
:102360002068016821F0400101602068016841F4A3
:102370008041016020680168490603D4016841F08A
:1023800040010160E068B0F5E06F2BD9606810B1E2
:10239000BAF1010F20D1A06B21680088C860A06B42
:1023A000801CA063E08F401EE08715E020688168F4
:1023B000890709D5A16B0988C160A06B801CA06347
:1023C000E08F401EE08707E0FEF7C4FFC01BA84275
:1023D00001D3681C04D11DB1E08F0028E6D145E08F
:1023E000032657E0606810B1BAF1010F3BD1E08FCE
:1023F00001280AD9A06B21680088C860A06B801CE6
:10240000A063E08F801EE0872DE0A06B216800783C
:102410000873A06B401CA063E08F401EE08722E0A1
:1024200020688168890716D5E18F012909D9A16B38
:102430000988C160A06B801CA063E08F801EE087CC
:1024400011E0A16B09780173A06B401CA063E08FC1
:10245000401EE08707E0FEF77DFFC01BA84201D3C6
:10246000681C0ED16DB1E08F0028D9D13A462946BB
:10247000204601F065FD08B120202066A06810B15B
:1024800005E0032606E02068C16880680090206EA1
:1024900000B1012684F85D9084F85C8030463BE70B
:1024A0002DE9F05F04460A9E8A4693461F460125A1
:1024B0004FF0000894F85C0001280ED0012084F849
:1024C0005C00FEF747FF814694F85D0061680128D3
:1024D0000DD0B1F5827F07D102E00220BDE8F09F68
:1024E000A16809B9042802D04FF0020804E1BAF14A
:1024F000000F26D0BBF1000F23D0380021D094F874
:102500005D00042802D0052084F85D0000202066CC
:10251000C4F840B0A4F84670A4F84470C4F838A0D9
:10252000E787A787E0642065E0684FF4E0618842B0
:1025300001D8012F08D92068426822F480524260F5
:1025400007E04FF00108D7E02068426842F480526B
:10255000426020680268520603D4026842F04002DA
:102560000260E068884246D9606808B1012F3AD11C
:10257000A06B21680088C860A06B801CA063E08FFE
:10258000401EE0872FE02068816889070DD5E18F24
:1025900059B1012D09D1A16B0988C160A06B801CC4
:1025A000A063E08F401EE087002520688168C9078E
:1025B0000ED0B4F8461059B1C068216C0880206C68
:1025C000801C2064B4F84600401EA4F84600012593
:1025D000FEF7C0FEA0EB0900B04204D3701C02D08D
:1025E0004FF0030888E0E08F0028CCD1B4F8460013
:1025F0000028C8D176E0606808B1012F6BD1E08F68
:1026000001280AD9A06B21680088C860A06B801CD3
:10261000A063E08F801EE0875DE0A06B21680078FA
:102620000873A06B401CA063E08F401EE08752E05F
:102630002068816889071AD5E18FC1B1012D16D1B3
:10264000E18F012909D9A16B0988C160A06B801CA9
:10265000A063E08F801EE08708E0A16B097801731A
:10266000A06B401CA063E08F401EE087002520681F
:102670008168C90726D0B4F8461019B3B4F84610DB
:10268000012913D9C06854F8401F08802068801CB5
:102690002060E088801EE080E088403C012810D85F
:1026A0002068416841F4805141600AE0007B216C60
:1026B0000870206C401C2064B4F84600401EA4F84A
:1026C00046000125FEF746FEA0EB0900B04201D30B
:1026D000701C18D1BEB1E08F0028A9D1B4F8460013
:1026E0000028A5D14A463146204601F029FC18B100
:1026F0004FF001082020206601205C34607000202B
:1027000020704046EAE64FF00308F5E710B5401E9A
:10271000B0F1807F01D3012010BD4FF0E024606153
:102720000F21601702F084FC0020A06107202061C7
:10273000002010BD7047704770470000F0B590F85A
:102740003C20012A2BD0012680F83C60022280F830
:102750003D2003685A689D68124FBB4203D122F4A2
:1027600070044A68224322F070040A6822435A60C7
:102770000268BA4208D0B2F1804F05D00A4B9A42A3
:1027800002D00A4B9A4204D125F08003896819438C
:1027900091603C304670002101700020F0BD0220A5
:1027A000F0BD0000002C014000040040004001404A
:1027B00010B50446002C03D094F83D0010B107E09A
:1027C000012010BD002084F83C00204600F018F8DD
:1027D000022084F83D00211D206801F0BDFD01208C
:1027E0003D34E0726070A070E07020716071A07183
:1027F000E07120726072A0722070002010BD000095
:1028000010B586B00446142101A8FDF7B3FF206877
:10281000B0F1804F25D11448C16941F00101C16177
:10282000C16901F001010091416941F40031416148
:10283000406900F4003000900220019002900020D6
:10284000039004900120059001A94FF09040FEF7FD
:10285000A9FC002211461C20FFF718F81C20FFF7E6
:1028600007F806B010BD00000010024090F83D10BF
:10287000012901D001207047022180F83D10006835
:102880000F49884208D0B0F1804F05D00D498842E9
:1028900002D00D4988420CD181680C4A11400629AA
:1028A0000BD0B1F5803F08D0016841F00101016013
:1028B00003E0016841F00101016000207047000061
:1028C000002C0140000400400040014007000100CE
:1028D00070B50446002594F83C00012817D0012665
:1028E00084F83C60022084F83D0020688268324B06
:1028F0001A4022F47F4282600868502838D00DDCEC
:10290000202853D005DC90B3102811D14EE00220CE
:1029100070BD30284AD040280AD13DE0602831D02F
:1029200070280CD0B0F5805F03D0B0F5005F12D0F6
:1029300001253C34667000202070284670BDCB68AD
:10294000D1E90121206801F05AFD2068816841F039
:1029500077018160EDE7CB68D1E90121206801F0C2
:102960004EFD2068816841F480418160E1E71DE00F
:10297000CA684968206801F09DFD5021206801F077
:1029800048FDD6E7CA684968206801F0D1FD60219A
:10299000206801F03EFDCCE7CA684968206801F074
:1029A00089FD4021206801F034FDC2E7226801461C
:1029B000104601F02EFDBCE788FFFEFF10B5017F39
:1029C000022916D1042100F01AFA0A4A116881423C
:1029D00002D9C943014400E0411A1060064881420F
:1029E00007D24FF47A70414388095168BDE810401E
:1029F000084710BD300000200090D00370B5054698
:102A00000C46002695F83C0001280FD0012085F8DF
:102A10003C006AB1042A1CD0082A2CD00C2A3BD0D6
:102A20000126002085F83C00304670BD022070BDB4
:102A3000D4E90012E368286801F04EFD2868816936
:102A400021F00C01816128688169A26811438161CC
:102A5000E7E7D4E90012E368286801F07BFD286805
:102A6000816921F44061816128688169A26841EA35
:102A700002218161D5E7D4E90012E368286801F0FA
:102A800084FD2868C16921F00C01C1612868C16911
:102A9000A2681143C161C4E7D4E90012E368286861
:102AA00001F08CFD2868C16921F44061C16128688A
:102AB000C169A26841EA0221C161B2E710B50446CA
:102AC000002C03D094F83D0010B107E0012010BDA8
:102AD000002084F83C00204600F017F8022084F81B
:102AE0003D00211D206801F037FC01203D34E072DB
:102AF0006070A070E07020716071A071E071207250
:102B00006072A0722070002010BD704730B504467E
:102B10000025002913D0042914D0082915D00C2928
:102B200016D0102917D094F84300B9B1042918D051
:102B3000082919D094F8472001281AD117E094F8F1
:102B40003E00F2E794F83F00EFE794F84000ECE72E
:102B500094F84100E9E794F84200E6E794F844204D
:102B6000EAE794F84520E7E794F84620E4E7012AED
:102B700001D0012030BD0220D1B104291BD0082989
:102B80001CD00C291DD010291ED084F84300F1B1AF
:102B900004291FD0082920D084F8470001B3042954
:102BA00024D0082928D00C292CD0012585B352E047
:102BB00084F83E00EBE784F83F00E8E784F8400043
:102BC000E5E784F84100E2E784F84200DFE784F8B3
:102BD0004400E3E784F84500E0E784F84600DDE7D9
:102BE0002068C26842F00202C260DFE72068C26863
:102BF00042F00402C260D9E72068C26842F00802CD
:102C0000C260D3E72068C26842F01002C260CDE71C
:102C1000FFE70122206801F0E5FB104920688842A7
:102C200008D0B0F1804F05D00D49884202D00D493F
:102C300088420CD181680C4A114006290BD0B1F5AD
:102C4000803F08D0016841F00101016003E00168A4
:102C500041F001010160284630BD0000002C014018
:102C600000040040004001400700010070B5044628
:102C7000206801694FF00005C943890716D4C1686F
:102C8000C943890712D4E91E016101202077206819
:102C90008069800703D02046FFF790FE05E02046BC
:102CA00000F0AAF8204600F0A8F82577206801690E
:102CB000C943490718D4C168C943490714D46FF000
:102CC00004010161022020772068806910F4407FB0
:102CD00003D02046FFF772FE05E0204600F08CF896
:102CE000204600F08AF8257720680169C943090762
:102CF00017D4C168C943090713D46FF008010161F3
:102D0000042020772068C069800703D02046FFF7A1
:102D100055FE05E0204600F06FF8204600F06DF803
:102D2000257720680169C943C90618D4C168C94319
:102D3000C90614D46FF010010161082020772068C3
:102D4000C06910F4407F03D02046FFF737FE05E04E
:102D5000204600F051F8204600F04FF82577206813
:102D60000169C943C90708D1C168C943C90704D16A
:102D7000891E0161204600F041F820680169C943BD
:102D8000090609D4C168C943090605D46FF080015A
:102D900001612046FFF7CFFC20680169C943C905DE
:102DA00009D4C168C943090605D46FF48071016173
:102DB0002046FFF7BFFC20680169C943490609D4D2
:102DC000C168C943490605D46FF04001016120463E
:102DD00000F053F820680169C94389060BD4C16823
:102DE000C943890607D46FF0200101612046BDE880
:102DF0007040FFF7A1BC70BD704770477047024636
:102E00000020002908D0042909D008290AD00C295B
:102E100001D11068006C70471068406B70471068F3
:102E2000806B70471068C06B704770B5044694F8AB
:102E30003C0001280FD0012584F83C50022084F882
:102E40003D00204601F0EEFA002130B13C346570BF
:102E50002170012070BD022070BD2068C26822F080
:102E60004002C2602068C26822F48042C26084F8D6
:102E70003D5084F83C10002070BD7047704770478B
:102E8000704700002DE9F04104462268D0691168BE
:102E9000936840F60F0500EA0506002E0AD1850664
:102EA00008D58D0606D5616E00297DD02046BDE887
:102EB000F04108470025002E77D0984F03F0010617
:102EC0000F40374371D0C70709D0CF0507D5012779
:102ED0001762D4F8802042F00102C4F880208207F3
:102EE0000AD5DA0708D0276802223A62D4F880208F
:102EF00042F00402C4F8802042070AD5DA0708D05D
:102F0000236804221A62D4F8802042F00202C4F836
:102F1000802002070CD501F02002324308D023683C
:102F200008221A62D4F8802042F00802C4F88020F7
:102F300002050BD54A0109D523684FF400621A62D5
:102F4000D4F8802042F02002C4F88020D4F88020F9
:102F5000002A35D0800605D5880603D5616E09B1F3
:102F600020468847D4F8800021688968490602D441
:102F700010F0280F2AD0204601F0DAFB2068806884
:102F800040061FD52068083050E8001F21F040019E
:102F900040E80012002AF5D1206F70B1604941630A
:102FA000206FFEF712F801E00AE015E0002807D0D4
:102FB000206F416BBDE8F04108472046FFF760FFF6
:102FC000BDE8F0812046FFF75BFFF9E72046FFF7F9
:102FD00057FFC4F88050F3E7266E012E7ED1C60657
:102FE0007CD5CE067AD510201062206880684FF01C
:102FF0002003400643D5216F0868406880B200284E
:10300000DED0B4F858208242DAD9A4F85A00886990
:1030100020282AD0206850E8001F21F4807140E861
:103020000012002AF6D12068083050E8001F21F075
:10303000010140E80012002AF5D12068083050E86C
:10304000001F21F0400140E80012002AF5D1E3679B
:103050002566206850E8001F21F0100140E80012AA
:10306000002AF6D1206FFDF78DFFB4F85800B4F8B0
:103070005A10401A81B22046FFF700FFA0E734F84B
:10308000580F6188401A81B26088583C002897D058
:10309000002995D0206850E8002F22F4907240E873
:1030A0000026002EF6D12068083050E8002F22F0CC
:1030B000010240E80026002EF5D1E367256665662B
:1030C000206850E8002F22F0100240E80023002B77
:1030D000F6D12046FFF7D2FE72E7FFE7C50209D519
:1030E0005B0207D54FF4801010622046BDE8F04126
:1030F000FFF7C5BE020608D50A0606D5A16E00294F
:10310000BCD02046BDE8F04108474006B6D5480689
:10311000B4D52046BDE8F04101F02FBB20010004EA
:103120001D47000810B50446002C02D0A06F10B156
:1031300007E0012010BD002084F87400204600F054
:1031400027F82420A0672068016821F001010160B0
:10315000204601F0BFFB012818D0606A10B120465C
:1031600001F048FA2068416821F4904141602068EC
:10317000816821F02A0181602068016841F0010125
:1031800001602046BDE8104001F098BA012010BD52
:1031900010B586B00446142101A8FDF7EBFA1749D3
:1031A0002068884227D11648C16941F40031C161C5
:1031B000C16901F400310091416941F4003141617C
:1031C000406900F4003000900C2001900220029031
:1031D00001200390032004900720059001A94FF0DF
:1031E0009040FDF7DFFF002201212620FEF74EFB75
:1031F0002620FEF73DFB06B010BD00000044004055
:10320000001002402DE9F84F04460E461546984638
:10321000E06F202802D00220BDE8F88F0EB305B37E
:1032200094F8740001281ED0012084F874004FF037
:10323000000AC4F880A02220E067C4F860A0FEF76E
:1032400089F88146A4F85850A4F85A50A0684FF461
:103250008053FF2198420DD1226932B1A4F85C104D
:103260000FE00120D8E70220D6E740F2FF11A4F8D2
:103270005C1006E07F2278B1B0F1805F14D0A4F832
:103280005CA0B4F85C70984201D12069A8B13546C1
:10329000002684F874A028E0256915B1A4F85C2004
:1032A000EFE7A4F85C10ECE7216919B13F21A4F81D
:1032B0005C10E6E7A4F85C20E3E70025E9E74B466D
:1032C000002220212046CDF8008001F013FC08B137
:1032D0000320A1E78DB12068808C384005F8010BF0
:1032E000B4F85A00401EA4F85A00B4F85A00002856
:1032F000E5D12020E06700208EE72068808C3840F0
:1033000026F8020BECE730B4C36F202B02D002206A
:1033100030BC7047C9B1C2B190F87430012B16D0DF
:10332000012380F874300023036603685B681B0286
:1033300008D5036853E8004F44F0806443E8004533
:10334000002DF6D130BC01F07BBB0120E0E702206C
:10335000DEE770472DE9F84304460E4615461F4642
:10336000A06F202802D00220BDE8F883CEB1C5B1FD
:1033700094F87400012816D0012084F874004FF0EE
:103380000009C4F880902120A067FDF7E3FF804684
:10339000A4F85050A4F85250A068B0F5805F04D053
:1033A00005E00120E0E70220DEE7206920B1354694
:1033B000002684F8749015E00025FAE743460022C1
:1033C00080212046009701F095FB08B10320CBE750
:1033D000B5B1216815F8010B0885B4F85200401EFC
:1033E000A4F85200B4F852000028E7D14346002266
:1033F00040212046009701F07DFB40B10320B3E758
:1034000036F8020B2168C0F308000885E5E72020A4
:10341000A0670020A8E77047FEE701688A69D243E9
:10342000920701D400228A6200688169C943C907F2
:1034300003D0816941F00101816170472DE9F041BC
:1034400004460D46164620688169C943C9063DD425
:103450004168890103D4416841F4804141600027FB
:103460004FF0200807E0681C05D0FDF773FF801BB4
:10347000A84220D8FDB120688069C0438006F2D4FC
:1034800021681020C8612068C0F81C802046FFF722
:10349000C4FF206841680E4A11404160606C40F0F2
:1034A0000400606484F8418084F8427084F84070BD
:1034B0000120BDE8F0814034606840F02000606089
:1034C00084F80180A77027700120F2E70020F0E760
:1034D00000E800FEF0B5059C006845684FF4806682
:1034E000064FC1F3090106EA545641EA02413E4340
:1034F0001943B54321430D434560F0BDFF63FF030E
:103500002DE9F04104460E4617461D46DDF81880A9
:1035100008E0681C06D0FDF71DFFA0EB0800A842DC
:103520000BD855B12068806936EA000011D0002020
:10353000B842EED00020BDE8F0814034606840F031
:1035400020006060202060700020A07020700120AA
:10355000F1E70120ECE700002DE9F04104460D46BB
:10356000164600274FF020082CE032462946204618
:10357000FFF764FF10B10120BDE8F0812068806989
:10358000C043800618D420688169C943490703D421
:10359000218D09B10020EFE7C0F81C802068416848
:1035A000114A11404160676484F8418084F8427098
:1035B00084F840700120DFE7FDF7CCFE801BA842B5
:1035C00007D835B120688069C0434007CDD40020BA
:1035D000D2E7606C40F02000606484F8418084F899
:1035E00040700120C8E7000000E800FE70B5044606
:1035F0000D4616460DE0324629462046FFF71EFFCF
:1036000008B1012070BDFDF7A5FE801BA84207D8B8
:1036100035B120688069C0438006ECD4002070BDBD
:103620004034606840F0200060602020607000201E
:10363000A0702070012070BD70B504460D4616467E
:103640000FE0324629462046FFF7F8FE08B1012078
:1036500070BD681C05D0FDF77DFE801BA84207D811
:1036600035B120688069C0438007EAD4002070BD6E
:103670004034606840F020006060202060700020CE
:10368000A0702070012070BD10B504490448FDF7FA
:10369000B8FB0249491E087010BD000065000020FB
:1036A0004800002010B586B0142101A8FDF762F88B
:1036B0000E48416941F400314161406900F4003035
:1036C00000904FF09044012210212046FDF73BFE70
:1036D0001021019101210291002103910321049104
:1036E00001A92046FDF75EFD06B010BD00100240A6
:1036F00010B513481149016040F20B2141600021CF
:1037000081600122C260016141618161C161016228
:10371000FDF77EFE08B1FDF710FB00210848FDF71C
:103720001FFE08B1FDF709FB00210548FDF745FE26
:10373000002801D0FDF701FB10BD0000005400403F
:10374000FC2B002010B511480F4901604FF4827125
:103750004160002181604FF4E062C260016141611B
:103760004FF4007282613822C2610162416281625B
:103770000722C262016308214163FEF710FD0028A1
:1037800001D0FDF7DAFA10BD00300140482C0020CE
:1037900010B50D4C0B482060FDF732FA6060002038
:1037A000A060E06020610C216161A061E0612062A5
:1037B00060622046FFF7B6FC002801D0FDF7BDFA95
:1037C00010BD000000440040AC2C002010B500F0FB
:1037D000F3F9BDE81040014800F010BA286F000866
:1037E00010B500F0F1F902280BD100F0E1F900F07A
:1037F000A5F800F09FF800F001FABDE8104000F0D5
:10380000D5B910BD10B5074C2078002808D16080CC
:10381000A08042F2E0610448FCF78AFF012020709A
:1038200010BD00000A0000204C030020044841881D
:103830008088814201D1012070470020704700003C
:103840000A000020074A42F2E0615088401CB0FBA9
:10385000F1F301FB13009188884201D101207047E8
:10386000002070470A00002010B5074B05489988D2
:10387000405C491C42F2E062B1FBF2F402FB14111D
:10388000998010BD4C0300200A00002010B50446AA
:10389000FFF7D8FF08B1012010BD084A064851883B
:1038A0004454491C42F2E060B1FBF0F300FB1310FA
:1038B0005080002010BD00004C0300200A000020B2
:1038C00000B587B01422094902A8FCF7F7FE0848A2
:1038D000416941F480214161406900F480200190F8
:1038E00002A90448FDF75EFC07B000BD746C000837
:1038F000001002400004004870B50D4D20212846FC
:10390000FDF71AFD044602212846FDF715FD44EA9D
:10391000400401212846FDF70FFD44EA80041021F0
:103920002846FDF709FD44EAC000C0B270BD0000A2
:1039300000040048004870479C00002070B5044611
:103940002046FCF745FE152804D3BDE870401FA0B3
:1039500003F050B8A8B31A212048FCF7E9FE1F482D
:103960001A211A30FCF7E4FE21461C48FCF70CFE35
:103970001A4821461A30FCF707FE19A11748FCF730
:10398000FDFD05461548174C1A3020601A38FCF723
:103990001FFE21680844401C2060284602F014FAEB
:1039A000411C06D0104901EB4010C068BDE87040D2
:1039B00000472A46BDE8704008480CA11A38FCF7B9
:1039C000F5BCBDE8704010A003F014B8496E7075E6
:1039D0007420746F6F206C6F6E672100B60000203A
:1039E0002000000004000020C06B0008436F6D6DD4
:1039F000616E6420646F65736E27742065786973E7
:103A0000743A202573000000526563656976656429
:103A1000206E6F20636F6D6D616E64732E00000009
:103A200010B50420FDF740F90548002141600181EF
:103A300081720160A021BDE81040022003F012B89D
:103A40001000002070B50646FDF784FC2A4D296859
:103A500001F57A72904201D2002946D12860264CA5
:103A60000320241D611D02F0F3FD211D042002F03E
:103A7000EFFDE11C052002F0EBFDA11C062002F089
:103A8000E7FD611C082002F0E3FD2146092002F059
:103A9000DFFDA11D072002F0DBFD607900F07F0053
:103AA00001F01CFB6071207900F07F0001F016FB33
:103AB0002071E07800F03F0001F010FBE070A0788A
:103AC00000F03F0001F00AFBA070607800F01F00DA
:103AD00001F004FB6070207801F000FB2070A079F9
:103AE00000F0070001F0FAFAA071686830602889D8
:103AF000B080A87AB07170BD100000201FB50346D9
:103B00000020019003208DF80800587902F062FC33
:103B10008DF80900187902F05DFC8DF80A00D8785C
:103B200002F058FC8DF80B00987802F053FC8DF8E9
:103B30000C00987902F04EFC8DF80D00587802F0D8
:103B400049FC8DF80E00187802F044FC8DF80F0047
:103B50009DF804000DF1050102F07AFD04469DF880
:103B6000050040F020018DF80510ACB9002002F0EE
:103B700079FF4FF4FA700090082302AAD0210A4876
:103B8000FDF74CFD04469DF8050020F020018DF85E
:103B90000510002002F066FF1CB14FF0FF3004B0AA
:103BA00010BD0020FBE70000FC2B002002F0B2BD9E
:103BB000004870478000002010B502F0ABFDBDE862
:103BC000104000F0BBB8000010B500F0C7F8094A7B
:103BD00050B10D280AD0084B9969142904D24C1C05
:103BE0009C61585401201070107810BD0220107094
:103BF000FAE70000000000208000002010B5002837
:103C000006D000F0D3F8BDE810400D2000F0B6B8A3
:103C100010BD0000014801F0DBBF00001C030020C4
:103C200070B506460024104D2878002805D10122E1
:103C30000EA10F4801F0B6FE04466CB928780128A1
:103C400002D10C4801F098FE012028703322314641
:103C5000084801F0D7FE04461CB902F0E9FB02F067
:103C60000AFC204670BD0000090000200000000092
:103C7000EC0000201C03002038B50A46002100910A
:103C800001466B46044801F0DAFF04460CB902F025
:103C9000F8FB204638BD00001C0300200148C06826
:103CA000704700001C030020F0B507460020094EB5
:103CB0003578042D0CD2084C04EB051427602371D1
:103CC000A16073681944E16062716D1C3570F0BDCC
:103CD0000120F0BD20000020602A002003480021C0
:103CE0000170416040210248FCF744BD20000020E3
:103CF000602A002070B5FDF72DFB0E4E7060002588
:103D000014E00D4800EB0514207968B1E068716893
:103D1000884209D820688047A06871680844E0603C
:103D2000607908B9002020716D1CEDB230788542B1
:103D3000E7D370BD20000020602A002005480178EC
:103D4000002906D1012101704FF49641024800F08C
:103D5000D1B87047080000200038014008B50020A5
:103D600000906946044800F0CBF89DF8000000F090
:103D700005F89DF8000008BD0038014070B5044604
:103D8000084D2146284600F0C9F80028F9D10D2C2D
:103D900007D10A20FFF7F2FFBDE8704002A000F053
:103DA00005B870BD003801403E20000010B5044643
:103DB00002E0FFF7E3FF641C20780028F9D110BD72
:103DC0001CB56846FFF73EFE684602F0B8FC0246A6
:103DD00002A10448FCF7EAFA02481CBD25582E74DB
:103DE000787400002C2A00202DE9FC47234C3A254A
:103DF00020262D274FF05B094FF05D086846FFF73E
:103E000021FE84F80090142002F05CFD0088A4F8E4
:103E100001009DF8000002F055FD0088A4F80300A1
:103E200067719DF8010002F04DFD0088E080277267
:103E30009DF8020002F046FD0088A4F80900E67231
:103E40009DF8030002F03EFD0088A081A5739DF857
:103E5000040002F037FD0088A4F80F0065749DF897
:103E6000050002F02FFD0088608284F814806675DA
:103E70000020A0752046BDE8FC8700002C2A002009
:103E800010B5FFF7CDFD002010BD000010B5034CAC
:103E9000606002F00DFA0020206010BD30000020AC
:103EA00010B5114C217800291CD111490F4A0A6024
:103EB0000068486000208860C86008610C224A6180
:103EC0008861C861086248620846FFF72BF908B1AB
:103ED000FCF733FF04490122491C0548FFF713FA98
:103EE0000120207010BD0000380000200044004078
:103EF0004C2B002010B50820FCF7D6FE002010BD8A
:103F000010B54FF4FA7301220348FFF77BF908B1AB
:103F1000032010BD002010BDAC2C002013B54FF4C1
:103F2000FA73012201A90448FFF714FA08B103202B
:103F30001CBD00201CBD0000AC2C0020FEE770471B
:103F4000F8B504460E461546334600224FF4C051DC
:103F50002046009500F042F828B1206E40F0200085
:103F600020660320F8BD33460022802120460095BC
:103F700000F0A4F828B1206E40F020002066032055
:103F8000F8BD334600224FF4C0612046009500F092
:103F900025F828B1206E40F0200020660320F8BDEF
:103FA0000020F8BD10B50446FDF7D4F901460248DB
:103FB0004160846010BD00003C00002010B5FDF79A
:103FC000C9F905494A688968801A884201D20120E6
:103FD00010BD002010BD00003C0000202DE9FC5F5A
:103FE00004460C9D0E46174698464FF0000BCDF840
:103FF00000B0FDF7AFF9401BA8EB0005FDF7AAF9EB
:104000008146D4F800A00AF10C0A2B480068C0EBE6
:10401000C00000EB8000000D6843019044E0B6F55D
:10402000C06F05D127B99AF8000000909DF80000F4
:10403000B8F1FF3F38D0FDF78DF9A0EB0900A84299
:1040400003D215B1019858B32BE02068416821F0E4
:10405000E00141606068B0F5827F0BD1A068B0F5E7
:10406000004F02D0B0F5806F04D12068016821F0C4
:1040700040010160A06AB0F5005F09D120680168C5
:1040800021F4005101602068016841F40051016091
:10409000012084F85D0084F85CB00320BDE8FC9F3B
:1040A00000250198401E0190206880683040B84289
:1040B000B5D10020F2E70000780000202DE9F84398
:1040C00004460F4691461E46089DFDF743F9401BE6
:1040D000351AFDF73FF9804626480068C0F3CB301B
:1040E000684300903AE0701C38D0FDF733F9A0EB3C
:1040F0000800A84203D215B1009858B32BE02068FD
:10410000416821F0E00141606068B0F5827F0BD129
:10411000A068B0F5004F02D0B0F5806F04D12068E0
:10412000016821F040010160A06AB0F5005F09D18B
:104130002068016821F4005101602068016841F4A1
:104140000051016001205C34607000202070032069
:10415000BDE8F88300250098401E00902068806824
:1041600037EA000004D000204845BCD10020EFE72A
:104170000120F9E7780000207047FDF727BB30B534
:104180008FB0282105A8FCF7F5FA14216846FCF742
:10419000F1FA0A20059010200A90012009900B9056
:1041A00002250C9500240D944FF460100E9005A884
:1041B000FDF7E2FC08B1FCF7C0FD0F20009001956F
:1041C00002944FF480600390049402216846FDF746
:1041D0008FFB002801D0FCF7B0FD0FB030BD000010
:1041E0000248016841F470010160704788ED00E009
:1041F00008B500F02FFF411C03D000906846FFF780
:104200004FFE08BDFFF706BD10B5074802218170BB
:10421000002101700D210548FCF78AFAFCF79AFE8F
:1042200000F038FF002010BD1C000020432A0020B1
:1042300030B585B0FCF774FD0446FCF775FD024609
:10424000B4F1B07F01D3012000E00020B4F1A07FE1
:1042500001D3012100E0002101B12AB10021234C4A
:1042600022782AB120B901E00121F8E7002925D000
:104270001F4D3AB1FCF742FD01460D221D48FCF7E7
:10428000A0FA15E014216846FCF774FA1222694678
:10429000284602F0F5F9042217A16846FCF7B7F9A1
:1042A00070B1FCF72BFD01460D221248FCF789FA8C
:1042B0001048FFF7B5FC40B10020207005B030BDBC
:1042C00001A90C48FCF760F9F2E7012020701422E4
:1042D0000B496846FCF7F2F9064901A8FCF754F9C6
:1042E0006946284602F0D0FBE8E700001C000020E9
:1042F00000F80008432A002066696C650000000091
:10430000186E000838B5FCF70FFD00281BD0FCF72D
:1043100005FD009002F04EFB0B4C68B1FCF702FD6E
:1043200005462846FCF754F901462846FFF7A4FC49
:10433000A07820F00200A07001216846FFF79CFCE5
:104340009DF80000607038BD1C0000200148FEF799
:104350008DBC0000002B00202DE9F04102681C4CB0
:10436000DFF870C04FF08048A04203D0404501D034
:10437000604503D122F070034A681A43164E174D68
:10438000174FA04209D0404507D0604505D0B04244
:1043900003D0A84201D0B84203D122F44073CA68C6
:1043A0001A434B6922F080021A4302608A68C26293
:1043B0000A688262A04205D0B04203D0A84201D070
:1043C000B84201D10969016301214161BDE8F08171
:1043D000002C014000040040004001400044014026
:1043E0000048014010B501F01F0101238B40046A11
:1043F0009C430462036A8A401343036210BD10B5F4
:10440000846824F47F4442EA03220A432243826000
:1044100010BD826822F070020A4342F007018160F9
:104420007047000070B500240268936823F070059F
:104430004B682B431E4D2B400D681D4395604A6809
:1044400012F00F0F31D11211082A2ED2DFE802F03C
:104450002E2E2E2E0B2127040B69D1E90221006894
:10446000FFF7CDFF22E00A68052A10D00268136A20
:10447000156A25F0010515620268956925F0F005B9
:10448000096945EA01119161006803620EE00120AB
:1044900070BD0A698968006800F00CF806E00A69D6
:1044A0008968006800F044F800E00124204670BDEF
:1044B000F8FFFEFF10B5036A046A24F001040462E9
:1044C000846924F0F00444EA021423F00A020A4347
:1044D0008461026210BD000070B5046A24F001041A
:1044E00004628469056A0F4EB04208D0B0F1804F73
:1044F00005D00D4EB04202D00C4EB04203D124F094
:104500000304144301E044F0010424F0F0041A070A
:1045100044EA126225F00A0301F00A01194382619C
:10452000016270BD002C01400004004000400140C9
:1045300010B5036A23F0100303628469036A24F44C
:10454000704444EA023223F0A00343EA011182617D
:10455000016210BD30B5046A24F01004046285695C
:10456000046A25F4407545EA022222F470454FF6AC
:10457000FF7202EA03322A4324F0A003A02404EAD3
:10458000011119438261016230BD30B5046A24F41F
:1045900080740462C469056A24F00304144324F09F
:1045A000F0041A0744EA126225F420634FF42064F1
:1045B00004EA01211943C261016230BD30B5046AC9
:1045C00024F480540462C569046A25F4407545EA00
:1045D000022222F470454FF6FF7202EA03322A43A8
:1045E00024F420434FF4204404EA01311943C2610A
:1045F000016230BD90F82410C90706D001684A68EE
:10460000836A22F400321A434A6090F82410890722
:1046100006D501684A68C36A22F480321A434A60A8
:1046200090F82410490706D501684A68036B22F404
:1046300080221A434A6090F82410090706D50168C1
:104640004A68436B22F400421A434A6090F82410EF
:10465000C90606D501688A68836B22F480521A4322
:104660008A6090F82410890606D501688A68C36BB1
:1046700022F400521A438A6090F82410490611D59A
:1046800001684A68036C22F480121A434A60016C84
:10469000B1F5801F06D101684A68436C22F4C0025C
:1046A0001A434A6090F82410090606D501684A6842
:1046B000806C22F4002202434A607047F8B5044639
:1046C0000025C4F88050FCF745FE074620680068C6
:1046D0006FF07E4600070AD53B4600224FF40011DA
:1046E0002046009600F006FA08B10320F8BD2068C5
:1046F000006840070AD53B4600224FF4800120465F
:10470000009600F0F7F908B10320F8BD2020A0675B
:10471000E067256684F874500020F8BD10B5406A43
:104720000021A0F85A10A0F85210FEF7A9FB10BD06
:10473000016851E8002F22F4907241E80023002B19
:10474000F6D10168083151E8002F22F0010241E85A
:104750000023002BF5D1016E012908D1016851E831
:10476000002F22F0100241E80023002BF6D1202177
:10477000C167002101664166704710B5016851E8C4
:10478000002F22F0400241E80023002BF6D1202127
:10479000816700218166FEF73EFE10BD10B5B0F8BE
:1047A0005C20C36F0168222B04D0886940F00800A8
:1047B000886110BD898C50F8543F11401980016800
:1047C000891C0160C188491EC180C18854380029F4
:1047D000EFD1016851E8002F22F4907241E80023E4
:1047E000002BF6D10168083151E8002F22F00102B8
:1047F00041E80023002BF5D12021C167002141664B
:10480000026E012A02D0FEF7A4FD10BD0166016808
:1048100051E8002F22F0100241E80023002BF6D1CE
:104820000168CA69D243D20601D410220A62B0F8E4
:104830005810FEF723FB10BD10B5B0F85C20C36F15
:104840000168222B04D0886940F00800886110BDFF
:10485000898C114050F8542F11700168491C016077
:10486000C188491EC180C18854380029EFD1016830
:1048700051E8002F22F4907241E80023002BF6D17A
:104880000168083151E8002F22F0010241E80023BD
:10489000002BF5D12021C16700214166026E012A5B
:1048A00002D0FEF756FD10BD0166016851E8002FE9
:1048B00022F0100241E80023002BF6D10168CA69FA
:1048C000D243D20601D410220A62B0F85810FEF783
:1048D000D5FA10BD70B504460025A1682069E269CB
:1048E0000143606910430143206802684E4B1A403F
:1048F0000A43026020684168E26821F44051114394
:104900004160A069216A01432068826822F4306214
:104910000A43826045492068884214D14448006BAC
:1049200010F0030007D0012809D0022809D003287D
:1049300003D0102012E0002010E002200EE004203E
:104940000CE008200AE03B49884201D1002005E044
:104950003949884201D1002000E01020E3694FF47A
:104960000041364A4FF6EF768B422FD1092814D2F8
:10497000DFE800F005090D130F1313131500FDF701
:1049800099F801460BE0FDF7ABF8014607E0114648
:1049900005E0FDF7BBF8014601E000210125D9B390
:1049A0006068490001EB5001B1FBF0F080B2A0F16A
:1049B0001001B14208D84FF6F0710140C0F3420037
:1049C00001432068C16029E0012527E0092814D2AD
:1049D000DFE800F005090D130F1313131500FDF7A1
:1049E00069F801460BE0FDF77BF8014607E0114648
:1049F00005E0FDF78BF8014601E00021012559B1E2
:104A0000606801EB5001B1FBF0F080B2A0F1100141
:104A1000B14202D82168C86000E00125002060662C
:104A2000A066284670BD0000F369FFEF0038014022
:104A300000100240004400400048004000127A008C
:104A400030B54165A0F85820A0F85A2000244466EB
:104A500081684FF48055FF22A94209D1016911B143
:104A6000A0F85C200BE040F2FF11A0F85C1006E01B
:104A70007F2331B3B1F1805F2BD0A0F85C40C0F848
:104A800080402221C1670168083151E8002F42F0BF
:104A9000010241E80023002BF5D18168A94201D130
:104AA0000169F9B11149416680F87440016851E823
:104AB000002F42F4907241E80023002BF6D1002031
:104AC00030BD016911B1A0F85C30D8E7A0F85C20D6
:104AD000D5E7016919B13F21A0F85C10CFE7A0F834
:104AE0005C30CCE702494166DEE700003948000847
:104AF0009D4700082DE9F0470446089D88469146E9
:104B00009A460027202648E0681C46D0FCF722FC85
:104B1000A0EB0A00A84227D835B3206801684907EE
:104B20003BD5C069C043000537D421684FF400600D
:104B30000862206850E8001F21F4D07140E800129C
:104B4000002AF6D12068083050E8001F21F001014A
:104B500040E80012002AF5D174346660A660E66071
:104B600027700320BDE8F087206850E8001F21F47B
:104B7000D07140E80012002AF6D12068083050E8D1
:104B8000001F21F0010140E80012002AF5D1A667BC
:104B9000E66784F874700320E4E72068C06938EAA7
:104BA000000004D000204845AED00020DAE7012004
:104BB000F9E7000010B50B48FEF764F9094C606D89
:104BC000401E6065FEF71EFE606D0078FEF75EFE1B
:104BD00008B1FCF7B1F8616DBDE810400122014851
:104BE000FEF791BB4C2B00202DE9F843002802D0A2
:104BF0000120BDE8F883474F3878800701D5387821
:104C0000F7E7DFF81481D8F80000016841F03801B7
:104C100001600A24FF2001F077FF641EE4B2002C3B
:104C2000F8D100250021084601F0D6FD01285CD10D
:104C30004FF47A70FFF7B6F94FF4D571082001F000
:104C4000CBFD012808D00021A92001F0C5FD0128D5
:104C500036D80225A92435E06E46FF2001F054FF26
:104C60003055641CE4B2042CF7D39DF802000128EF
:104C70003BD19DF80300AA2837D14407FFF79EF9DE
:104C800028B12146A92001F0A7FD0028F6D1FFF7A1
:104C900095F950B300213A2001F09EFD28BB002475
:104CA000FF2001F031FF3055641CE4B2042CF7D32F
:104CB0009DF80000400601D50C2516E0042514E0FF
:104CC00001250124FFF77AF928B10021204601F0DF
:104CD00083FD0028F6D1FFF771F928B14FF4007178
:104CE000102001F079FD00B100257D7000F09CFCE2
:104CF00065B1D8F80000016821F0380141F00801E1
:104D00000160387820F00100387001E0012038702F
:104D100038786EE73C000020482C00207FB5034621
:104D20001546002B02D0042004B070BD704E3078C0
:104D3000C00701D00320F7E7012461B1012910D099
:104D40006B48032940784DD004297DD0042400F01D
:104D50006BFC2046E8E701F080FD0028F7D0002436
:104D6000F5E70021092001F037FD0028EFD11021DF
:104D7000684601F040FC0028E9D09DF800100120B1
:104D8000B0EB911F0DD19DF809109DF8082001EBA3
:104D900002229DF8071000EB0140104480022860B9
:104DA0001EE09DF805009DF80A1000F00F0000EBD2
:104DB000D1109DF8091001F0030100EB41009DF8AE
:104DC00008109DF80720890901EB82019DF8062053
:104DD00002F0030201EB8221491CC01F81402960BF
:104DE0000024B4E740071DD500218D2001F0F4FC1C
:104DF0000028ACD1FF2001F087FE1021684601F0A9
:104E0000FAFB0028A3D03024FF2001F07DFE641EB1
:104E1000E4B2002CF8D19DF80A0001091020884066
:104E2000286094E70021092001F0D6FC00288ED1EB
:104E30001021684601F0DFFB002888D070788007D9
:104E400012D59DF80A0000E01FE080069DF80B10C7
:104E5000400E00EBD1109DF80D10FF22401C02EB1C
:104E60009111884028600EE09DF80B008107C90E63
:104E700001EB50109DF80A10401CC1F38401491C3D
:104E800010FB01F02860002461E710F0060FA8D0A5
:104E90006A460B211846FFF741FF0028A1D19DF873
:104EA0000000800903D19DF80A00400699D52968C1
:104EB0006D687078000701D449026D02202001F06E
:104EC0008BFC00288DD12946212001F085FC00288B
:104ED00087D10021262001F07FFC0028A1D147F2D4
:104EE000305001F0A8FD00289BD000242FE70000DF
:104EF0003C00002070B50D4611461C46002806D126
:104F00002CB11A480278D20703D0032070BD0420C8
:104F100070BD4078000700D449024FF40076012CA0
:104F200004D0122001F058FC58B117E0112001F014
:104F300053FC98B93146284601F05DFB70B100245E
:104F40000CE03146284601F056FB18B105F5007516
:104F5000641EF6D100210C2001F03EFC00F064FB41
:104F60000CB1012070BD002070BD00003C0000208D
:104F7000002801D0012070470148007870470000E8
:104F80003C00002070B50D4616461C46002806D190
:104F90002CB121480178C90703D0032070BD04203B
:104FA00070BD0178490701D5022070BD4078010726
:104FB00000D47602012C0CD010F0060F03D021464D
:104FC000972001F009FC3146192001F005FC60B181
:104FD0001AE03146182001F0FFFBA8B9FE2128464F
:104FE00001F0A2FD80B100240EE0FC21284601F072
:104FF0009BFD18B105F50075641EF6D1FD2100205A
:1050000001F092FD00B9012400F00EFB0CB101206B
:1050100070BD002070BD00003C000020FFF7E4BD23
:10502000FFF77CBEFFF766BFFFF7A2BFFFF7AABF7F
:105030000907090E002804DB00F1E02080F80014C5
:10504000704700F00F0000F1E02080F8141D704759
:10505000FEE7000010B50C4C2078142811D34FF057
:10506000FF310020094B53F820208A4200D211461C
:10507000401C1428F7DB481C03D00548B0FBF1F0B6
:105080006060606810BD000028000020B02A002089
:1050900000CA9A3B10B50748FEF7F8FE064C4FF0E1
:1050A000FF32626050210548FBF73AFB0020207078
:1050B00010BD0000C150000828000020B02A0020C8
:1050C000044A1178142904D24B1C1370024A42F886
:1050D0002100704728000020B02A002000F00F01B6
:1050E000000900EB800001EB4000C0B270470000F7
:1050F0007CB52024094901EB4010054610300646D6
:1051000007A1FBF789FB00B90024CDE900462B4637
:1051100004A206A10848FBF749F97CBDC06B000852
:105120000000000055736167653A00002573202573
:1051300073256325730000009C00002010B5044611
:105140000020E070401EE062204601F0BDF908B189
:10515000042010BD04F22E2001F065F9A0F52A41CB
:10516000553901D0032010BD94F83000E92805D04E
:10517000EB2816D194F83200902812D104F1660081
:1051800001F046F90849B1EB002F01D1002010BD14
:1051900004F1820001F03CF90449884201D1002069
:1051A00010BD022010BD000000464154464154335A
:1051B00000E0401C02780AB18A42FAD100787047B8
:1051C000F0B500221546154E11E006EB02131C68DF
:1051D0005CB10768BC4209D15C688768BC4205D1F4
:1051E0009B684469A34204D000E00125521C022AB6
:1051F000EBD3022A01D079B906E01DB9022901D00A
:105200001220F0BD0020F0BD06EB02108089B0F541
:10521000807F01D00020F0BD1020F0BDD02B0020F9
:1052200030B50021054B002403EB011215688542BF
:1052300000D11460491C0229F6D330BDD02B0020C8
:105240000368C26A121D480A5989B0FBF1F002CA0C
:1052500021B1884204D21168084470470020704789
:10526000401A121DF3E7891E4269921E8A4201D834
:1052700000207047826A408901FB002070470000CF
:1052800010B5FBF705FDFBF7BBFC0246BDE810407F
:1052900001A10548FBF78AB84261756420436F6E2F
:1052A000663A2025750000009C00002010B5FEF72E
:1052B000E7FDFEF799FD0146BDE810400148FBF708
:1052C00063B900009C00002010B50DA10020FBF781
:1052D00055F904467CB1204600F076FD411C03D010
:1052E000BDE81040FFF704BF2246BDE8104005A10D
:1052F0000B48FBF75BB8BDE810400020FFF7F8BE95
:10530000200000004E6F207375636820636F6D6D21
:10531000616E64206578697374733A2025730000A8
:105320009C00002070B50C490020087000240B4D33
:10533000094805EB4411FBF7B5F9042C03DA08A181
:105340000548FBF7AFF9641C052CF1DBBDE87040A4
:10535000014801F04FBB0000B6000020C06B000800
:105360002000000030B58BB02CA10020FBF706F91F
:10537000044620004CD0FBF72BF90C2804D028A0C1
:1053800001F038FB0BB030BD242102A8FBF7F2F985
:10539000002002AD002100EB40022A4414F8013B3A
:1053A0005354491C0229F9DB401C0C28F2DBFEF7A0
:1053B00037FB00200090019002A8FBF7D1F88DF890
:1053C0000000E81CFBF7CCF88DF80100A81DFBF7E6
:1053D000C7F88DF802000DF11100FBF7C1F88DF848
:1053E000030005A8FBF7BCF88DF804000DF11700C9
:1053F000FBF7B6F88DF805006846FEF77FFB18B19D
:105400000CA001F0F7FABDE711A001F0F3FAB9E73B
:105410000BB014A0BDE8304001F0ECBA2000000051
:10542000496E76616C696420706172616D65746546
:105430007221000054696D65206E6F74207365746D
:105440002E20525443206572726F722E00000000AD
:1054500054696D6520686173206265656E207365AF
:10546000742E00004D697373696E672070617261FC
:105470006D657465722100002DE9F04180460F468C
:10548000D8F80050002F08D03946404600F02AFED8
:10549000022809D20120BDE8F081EE6816B16869E2
:1054A000B04207D8012605E0411CF4D06969814269
:1054B000F1D83E463446641C6869A04204D80224F0
:1054C000022E01D20020E6E72146404600F00AFE07
:1054D00038B10128DFD0411CDDD0B442EBD100202F
:1054E000D9E74FF0FF3632462146284601F006F84C
:1054F00028B927B122463946284600F0FFFF20B1DF
:1055000001280FD001242046C5E7EC60D5E904014D
:10551000891E884201D8401E2861287940F0010088
:105520002871F0E73446EEE72DE9F0478A46DAF8CD
:10553000009000F124080B222021404600F0BEFF1D
:1055400000252E46082728466D1C19F80040202CFF
:1055500015D92F2C0DD05C2C0BD02E2C01D0BE4297
:105560001AD30B2F01D02E2C13D00620BDE8F087C4
:105570006D1C19F805002F28FAD05C28F8D009EB2B
:105580000500CAF80000FEB198F80000E5281DD01B
:105590001FE008260B27D6E7802C03D311482044B0
:1055A00010F8804C10A02146FFF702FE08B106203B
:1055B000DCE7A4F16100192801D8203CE4B23046B0
:1055C000761C08F80040BEE70620CFE7052088F8E3
:1055D0000000202C01D8042000E0002088F80B00F7
:1055E0000020C3E72A6E0008222A2B2C3A3B3C3DC0
:1055F0003E3F5B5D7C7F0000401E022810D20949BF
:1056000001EB00118889B0F5807F00D1002008B13E
:10561000401E80B2888108B90020086000207047D1
:1056200002207047D02B002010B5012210214FF02E
:105630009040FBF788FEBDE81040FF2001F064BAFF
:105640002DE9F04105460E462F680021284600F05E
:10565000E9F888B900243846E96900F035FF58B9FF
:10566000296A0A78E52A0CD05AB10024012128467B
:1056700000F035F80028EED0042800D10720BDE85E
:10568000F081641CB442F7D0F0E770B50446266898
:105690000021204600F0C6F800281DD13046E169FF
:1056A00000F012FF0546B5B9206A0178A9B1C17AA8
:1056B00001F03F01A171C17A090705D40B2204F161
:1056C000240100F0E6FE30B10021204600F007F88A
:1056D0000546002DE2D0284670BD0425FBE72DE9E4
:1056E000F04705460F462C68D5F8148008F12008CD
:1056F000E869002802D0B8F5001F02D30420BDE8F5
:10570000F0875FEAC85166D1401CE861A9694FF093
:10571000000929B16089401E10EA582F08D05AE0CC
:105720002089B0EB581F56D8C5F81C900420E6E736
:10573000284600F0D7FC0646012E01D80220DEE7FD
:10574000701C14D06069B0423FD897B12846A9694F
:10575000FFF792FE064630000FD0012E0FD0701CCE
:105760000FD0204601F0FCF868B10120C7E7012006
:10577000C5E7C5F81C900420C1E70720BFE7022059
:10578000BDE70120BBE74FF40072002104F13000B7
:1057900000F094FE002731462046FFF764FDE062EA
:1057A0004FF001090BE084F80390204601F0D8F88F
:1057B00008B10120A3E77F1CE06A401CE062608919
:1057C000B842F0D8E06AC01BE062AE6131462046C4
:1057D000FFF749FDE861C5F81480C8F308002044CC
:1057E0003030286200208AE770B50446266801211F
:1057F0002046FFF725FF054695B93046E16900F0E0
:1058000063FE054665B920220021206A00F056FE9D
:105810000B2204F12401206A00F047FE0120F07001
:10582000284670BD2DE9F04106460D463768B5F5AE
:10583000001F01D2E80602D00220BDE8F0817561A8
:10584000B4681CB93878032800D37C6A1CB1788905
:105850004FEA40281AE03889B0EB551F01D80220E2
:10586000EBE7786AF06118E02146304600F03AFC38
:105870000446601C06D0022C02D37869A04203D8EB
:105880000220DAE70120D8E7A5EB08054545EBD271
:1058900021463846FFF7E7FCF061B461F06948B192
:1058A00000EB5520F061C5F3080038443030306219
:1058B0000020C2E70220C0E710B50021084A135CAF
:1058C000002B0AD101211154111802EB8000097A32
:1058D00040680268084690470146084610BD00002F
:1058E000F02B002030B4054B1C1803EB8000247A09
:1058F00040680369204630BC18470000F02B0020A8
:1059000030B4054C251804EB80002D7A406884687B
:105910002846A44630BC6047F02B002004490A18F2
:1059200001EB8000127A4068416810460847000089
:10593000F02B002030B4054C251804EB80002D7AA4
:105940004068C4682846A44630BC6047F02B00205D
:105950000020084900E0401C022804D201EB00129C
:105960001268002AF7D1022801D0012070470020D8
:1059700070470000D02B002038B50446204600F0C8
:1059800027F900280CD16946204601F039F8002893
:1059900006D12069FFF730FE002801D100212160E7
:1059A00038BD00002DE9F74181B0164602980090FD
:1059B000684600F018FC0446002C03DA0B2004B003
:1059C000BDE8F0810E4F57F824504FF0000825B184
:1059D0002846FFF725FC85F800800198002801D0B3
:1059E00080F8008047F8240001D0012E01D000206B
:1059F000E5E7002201A902A800F0FAF9DFE70000BC
:105A0000600000202DE9F7438EB00546002D0BD035
:105A100002F03F06324601A90FA800F0E9F904465A
:105A20004FF0000824B1CCE0092011B0BDE8F083AC
:105A30000198029002A80F9900F018FB044620007C
:105A40000ED19DF83700000601D5062408E0700845
:105A500001D0012100E0002102A8FFF7B1FB0446BC
:105A600016F01C0F51D06CB1042C08D1FFF770FF59
:105A700020B102A8FFF7B8FE044600E0122446F069
:105A8000080609E09DF80E0010F0110F01D0072460
:105A900002E0700700D50824B4BB300741D500F000
:105AA00083FB07460A9839460E3000F0FFFE0A983D
:105AB0003946163000F0FAFE0A992020C8720A9979
:105AC000019800F092FC074600220A99019800F024
:105AD000D9FE0A9800211C3000F0E8FE019801214F
